{
  "address": "0x97144d0411C39550CB5207261eeC7F9e9c57dD3b",
  "abi": [
    {
      "anonymous": false,
      "inputs": [
        {
          "indexed": true,
          "internalType": "bool",
          "name": "isVerified",
          "type": "bool"
        },
        {
          "indexed": true,
          "internalType": "address",
          "name": "user",
          "type": "address"
        },
        {
          "indexed": true,
          "internalType": "uint256[22]",
          "name": "input",
          "type": "uint256[22]"
        }
      ],
      "name": "IsVerified",
      "type": "event"
    },
    {
      "inputs": [
        {
          "internalType": "uint256[2]",
          "name": "a",
          "type": "uint256[2]"
        },
        {
          "internalType": "uint256[2][2]",
          "name": "b",
          "type": "uint256[2][2]"
        },
        {
          "internalType": "uint256[2]",
          "name": "c",
          "type": "uint256[2]"
        },
        {
          "internalType": "uint256[22]",
          "name": "input",
          "type": "uint256[22]"
        }
      ],
      "name": "verifyProof",
      "outputs": [
        {
          "internalType": "bool",
          "name": "r",
          "type": "bool"
        }
      ],
      "stateMutability": "nonpayable",
      "type": "function"
    }
  ],
  "transactionHash": "0xf66a17047c100dab1fa561b51a3152904145541aab95ca6861726b93f42ca24e",
  "args": [],
  "numDeployments": 2,
  "solcInputHash": "8a00d3a50c275c5188b9f71fa7ae6472",
  "bytecode": "0x608060405234801561001057600080fd5b50611d28806100206000396000f3fe608060405234801561001057600080fd5b506004361061002b5760003560e01c8063c5a0fc2614610030575b600080fd5b61019060048036036103c081101561004757600080fd5b8101908080604001906002806020026040519081016040528092919082600260200280828437600081840152601f19601f82011690508083019250505050505091929192908060800190600280602002604051908101604052809291906000905b828210156100fc578382604002016002806020026040519081016040528092919082600260200280828437600081840152601f19601f820116905080830192505050505050815260200190600101906100a8565b50505050919291929080604001906002806020026040519081016040528092919082600260200280828437600081840152601f19601f8201169050808301925050505050509192919290806102c001906016806020026040519081016040528092919082601660200280828437600081840152601f19601f82011690508083019250505050505091929192905050506101aa565b604051808215151515815260200191505060405180910390f35b60006101b4611bb0565b6040518060400160405280876000600281106101cc57fe5b60200201518152602001876001600281106101e357fe5b60200201518152508160000181905250604051806040016040528060405180604001604052808860006002811061021657fe5b602002015160006002811061022757fe5b602002015181526020018860006002811061023e57fe5b602002015160016002811061024f57fe5b6020020151815250815260200160405180604001604052808860016002811061027457fe5b602002015160006002811061028557fe5b602002015181526020018860016002811061029c57fe5b60200201516001600281106102ad57fe5b602002015181525081525081602001819052506040518060400160405280856000600281106102d857fe5b60200201518152602001856001600281106102ef57fe5b602002015181525081604001819052506060601667ffffffffffffffff8111801561031957600080fd5b506040519080825280602002602001820160405280156103485781602001602082028036833780820191505090505b50905060008090505b60168110156103905784816016811061036657fe5b602002015182828151811061037757fe5b6020026020010181815250508080600101915050610351565b50600061039d82846104c7565b141561043357836040518082601660200280838360005b838110156103cf5780820151818401526020810190506103b4565b5050505090500191505060405180910390203373ffffffffffffffffffffffffffffffffffffffff16600115157f9a205489393f6052be120139e9c46c9b74b734c5e09da648814a27f3d610ad3c60405160405180910390a46001925050506104bf565b836040518082601660200280838360005b8381101561045f578082015181840152602081019050610444565b5050505090500191505060405180910390203373ffffffffffffffffffffffffffffffffffffffff16600015157f9a205489393f6052be120139e9c46c9b74b734c5e09da648814a27f3d610ad3c60405160405180910390a46000925050505b949350505050565b6000807f30644e72e131a029b85045b68181585d2833e84879b9709143e1f593f000000190506104f5611be3565b6104fd6106fb565b905080608001515160018651011461057d576040517f08c379a00000000000000000000000000000000000000000000000000000000081526004018080602001828103825260128152602001807f76657269666965722d6261642d696e707574000000000000000000000000000081525060200191505060405180910390fd5b610585611c2a565b6040518060400160405280600081526020016000815250905060008090505b865181101561068457838782815181106105ba57fe5b602002602001015110610635576040517f08c379a000000000000000000000000000000000000000000000000000000000815260040180806020018281038252601f8152602001807f76657269666965722d6774652d736e61726b2d7363616c61722d6669656c640081525060200191505060405180910390fd5b610675826106708560800151600185018151811061064f57fe5b60200260200101518a858151811061066357fe5b6020026020010151611433565b61152e565b915080806001019150506105a4565b506106a781836080015160008151811061069a57fe5b602002602001015161152e565b90506106dd6106b98660000151611648565b8660200151846000015185602001518587604001518b6040015189606001516116e2565b6106ed57600193505050506106f5565b600093505050505b92915050565b610703611be3565b60405180604001604052807f2d4d9aa7e302d9df41749d5507949d05dbea33fbb16c643b22f599a2be6df2e281526020017f14bedd503c37ceb061d8ec60209fe345ce89830a19230301f076caff004d19268152508160000181905250604051806040016040528060405180604001604052807f0967032fcbf776d1afc985f88877f182d38480a653f2decaa9794cbc3bf3060c81526020017f0e187847ad4c798374d0d6732bf501847dd68bc0e071241e0213bc7fc13db7ab815250815260200160405180604001604052807f304cfbd1e08a704a99f5e847d93f8c3caafddec46b7a0d379da69a4d112346a781526020017f1739c1b1a457a8c7313123d24d2f9192f896b7c63eea05a9d57f06547ad0cec88152508152508160200181905250604051806040016040528060405180604001604052807f198e9393920d483a7260bfb731fb5d25f1aa493335a9e71297e485b7aef312c281526020017f1800deef121f1e76426a00665e5c4479674322d4f75edadd46debd5cd992f6ed815250815260200160405180604001604052807f090689d0585ff075ec9e99ad690c3395bc4b313370b38ef355acdadcd122975b81526020017f12c85ea5db8c6deb4aab71808dcb408fe3d1e7690c43d37b4ce6cc0166fa7daa8152508152508160400181905250604051806040016040528060405180604001604052807f198e9393920d483a7260bfb731fb5d25f1aa493335a9e71297e485b7aef312c281526020017f1800deef121f1e76426a00665e5c4479674322d4f75edadd46debd5cd992f6ed815250815260200160405180604001604052807f090689d0585ff075ec9e99ad690c3395bc4b313370b38ef355acdadcd122975b81526020017f12c85ea5db8c6deb4aab71808dcb408fe3d1e7690c43d37b4ce6cc0166fa7daa8152508152508160600181905250601767ffffffffffffffff811180156109c757600080fd5b50604051908082528060200260200182016040528015610a0157816020015b6109ee611c2a565b8152602001906001900390816109e65790505b50816080018190525060405180604001604052807f07912354b8e6a14cae16983936c1dc47e2f9b9014a8c16d20b5f3a62a9e9211481526020017f2ba8e382344124325db51f397268da56025252c716a85f5746b0c974ca280dcc8152508160800151600081518110610a7057fe5b602002602001018190525060405180604001604052807f03da0f156e81852cd18a3424dbd2ba801ec8fdf8d3482ac6d7a0f274c33c8eeb81526020017f20061f89ed3cb82be0257779e1584177b081a7ec7c93d855c8560e89fbb41c9d8152508160800151600181518110610ae157fe5b602002602001018190525060405180604001604052807f1417933c40bc6e864764950b64152490fd4e88563b58d7d4cd0a886eb3708bca81526020017f0f5fa90f7751763621c1bb80eeaf3e9756914d44df9907cd047bead732e046268152508160800151600281518110610b5257fe5b602002602001018190525060405180604001604052807f25bb316e2c3bcb1629edf6a7ea0a2cf010470f367aaf235edf0bab4e793a669081526020017f057ee3e01ff8bcac6e936ed7ce9c4908dd233a7514d68a69efb7f59b4b6bfdbf8152508160800151600381518110610bc357fe5b602002602001018190525060405180604001604052807f1cd28012571ed13df4e90d717f77f5ab9723c9a0c8632a6c43e94e8b7b17d9b481526020017f27e41f5f1161324a87d3fe6f7992e7b4fb5f235dafe6020b1ae6d57656a0f8038152508160800151600481518110610c3457fe5b602002602001018190525060405180604001604052807f0745164f21394e24eedd8eccb1e6171b939f0743c188402cb091a23c925565f681526020017f2578fd6f680baa4bb3f967584d5f67464ac539d9d01decb51c39bc2961be246e8152508160800151600581518110610ca557fe5b602002602001018190525060405180604001604052807f252822a45f0ee64673108c037d912b6721d70b285eb0e4f2980271659d9973c181526020017f060d79006903baab71074fbeb90819e328ce04b3b863ce0b49e0db8718aa3b708152508160800151600681518110610d1657fe5b602002602001018190525060405180604001604052807f0a586375d1271d1c161e55d1e1464b9f4d2a8258890426ac9ccd8c9041c8365f81526020017e9e09198b4ce35975624fe4127e9aaf9b663d4199c3bb8beb555e8a3a49715e8152508160800151600781518110610d8657fe5b602002602001018190525060405180604001604052807f17d7daf9b1e3c8af6cdf5c0cfdeb973c3ef0aa5714041713eb41c5a154288ad081526020017f2b1ab837268a4069acbe2be6d85a46e9d38631861c8a2551abcd5a8f438bd16a8152508160800151600881518110610df757fe5b602002602001018190525060405180604001604052807f0d3a72d7e8783917d99ce0474441d7203aecf59f0f032d79ab9b970e94e3b40381526020017f2a3b34fcb30646c12ff6697ac61dcc6859797d656fd475367339e713112ec95b8152508160800151600981518110610e6857fe5b602002602001018190525060405180604001604052807f23312a4a2e179e67a7ce13a69ff095052e83e9c4b8f134e19a90f3be1da6067a81526020017f06d6f8919d1c34163403f71371e86e8bfb4555b1c90a2425480deb7d4d8f363d8152508160800151600a81518110610ed957fe5b602002602001018190525060405180604001604052807f2a7361c56c73d06afabde0720bf124f54616a909f0fa7f49c11183db2c82887e81526020017f28645910042b321f43f056902ddd55bd4713b28d681454ef86a8c3bc98a4a54d8152508160800151600b81518110610f4a57fe5b602002602001018190525060405180604001604052807f2483e9080c0d46e6fafcd5b3ca9adcb4dd1390dea6f9e2e1e502b64465046b5d81526020017f162fdf5c8c661e92ee4c21b6a47bd5cf52f759ff76cc5ded50b0911b1f438efb8152508160800151600c81518110610fbb57fe5b602002602001018190525060405180604001604052807f2a45f77660e527edb12e799e81f15b7691e868e390c20f3172c694be5814dffc81526020017f01aeff18922aad0e4f0f432fa97cdb232fb3b601697c97bb33465f1982dfc2088152508160800151600d8151811061102c57fe5b602002602001018190525060405180604001604052807f29733c1321ea4855f872c337217b66e93458b9321187f3cd7e273ce24d11ed9c81526020017f1d2c1a395d403f2cd08c80846ba03033674512728a7477a43b0773c9ccc2b7308152508160800151600e8151811061109d57fe5b602002602001018190525060405180604001604052807f2c9e50cd08e99280e6601591616a73cd56df54154fc1072e88fe8f31584b5ed381526020017f08320c80a8fa9f7a9e93f14c1c370499690e96a015cd9c608caefeb82da93c358152508160800151600f8151811061110e57fe5b602002602001018190525060405180604001604052807f01e6d6a4410c9b0640afa5c8f4aa73f2167bf7b4a43344ba85b71dac345e308081526020017f03630f1fdd4144afa8238674c50a1372c4f1719e27de2b4bcb9ea3df00b27bec815250816080015160108151811061117f57fe5b602002602001018190525060405180604001604052807f24673d7cfc179fb6d6e42cc3f74a821e3152d0581effcef313312e638878554981526020017f08ada4d720840875c776b6d1803aa22868b4fdfa54ebb1afdc34de1eb5d3f5c681525081608001516011815181106111f057fe5b602002602001018190525060405180604001604052807f1981606e4889ef75a08cec268e592124d79c0e54cd94ad9c38b252aaeed409bb81526020017f17d7d4a1e9907013f296c58b708d597d2ca0f76a6ed0cab519114098773c2f51815250816080015160128151811061126157fe5b602002602001018190525060405180604001604052807f06943efed9ad0d1b4d17552a8d7d23b17b8e3837c60ba765618c9dfbe14501ee81526020017f067da1d0efe1a85913f4cf839dd73127692dc67e4240aed72f3227b0ae21790f81525081608001516013815181106112d257fe5b602002602001018190525060405180604001604052807f2670bdb7769f08edc1b3556f8f7ff71c8b71e0870fe5ba813cab0eaeebc7dd1d81526020017f0c10315f6278ade7638d632dc7535d6b63c5647c955e73dbb970defa0d4f42cc815250816080015160148151811061134357fe5b602002602001018190525060405180604001604052807f1f1826c8b66fb8eb59f20e8649e89d17ee7695ed872d0a58f139fc17bed14d0681526020017f239f6028f155dd00a8916a51445766d7112144d72fe358f70867a4de02ec5f1081525081608001516015815181106113b457fe5b602002602001018190525060405180604001604052807f0ac200ab3e06fdfe4c4f8593693489956c01c1a262a8fa563de8766d7615a29c81526020017f1a2b5cbd984dc138f4ef80ca0167a02a9310fb353ceb0edda161178a1a6ff21a815250816080015160168151811061142557fe5b602002602001018190525090565b61143b611c2a565b611443611c44565b83600001518160006003811061145557fe5b60200201818152505083602001518160016003811061147057fe5b602002018181525050828160026003811061148757fe5b602002018181525050600060608360808460076107d05a03fa905080600081146114b0576114b2565bfe5b5080611526576040517f08c379a00000000000000000000000000000000000000000000000000000000081526004018080602001828103825260128152602001807f70616972696e672d6d756c2d6661696c6564000000000000000000000000000081525060200191505060405180910390fd5b505092915050565b611536611c2a565b61153e611c66565b83600001518160006004811061155057fe5b60200201818152505083602001518160016004811061156b57fe5b60200201818152505082600001518160026004811061158657fe5b6020020181815250508260200151816003600481106115a157fe5b602002018181525050600060608360c08460066107d05a03fa905080600081146115ca576115cc565bfe5b5080611640576040517f08c379a00000000000000000000000000000000000000000000000000000000081526004018080602001828103825260128152602001807f70616972696e672d6164642d6661696c6564000000000000000000000000000081525060200191505060405180910390fd5b505092915050565b611650611c2a565b60007f30644e72e131a029b85045b68181585d97816a916871ca8d3c208c16d87cfd4790506000836000015114801561168d575060008360200151145b156116b15760405180604001604052806000815260200160008152509150506116dd565b604051806040016040528084600001518152602001828560200151816116d357fe5b0683038152509150505b919050565b60006060600467ffffffffffffffff811180156116fe57600080fd5b5060405190808252806020026020018201604052801561173857816020015b611725611c2a565b81526020019060019003908161171d5790505b5090506060600467ffffffffffffffff8111801561175557600080fd5b5060405190808252806020026020018201604052801561178f57816020015b61177c611c88565b8152602001906001900390816117745790505b5090508a826000815181106117a057fe5b602002602001018190525088826001815181106117b957fe5b602002602001018190525086826002815181106117d257fe5b602002602001018190525084826003815181106117eb57fe5b6020026020010181905250898160008151811061180457fe5b6020026020010181905250878160018151811061181d57fe5b6020026020010181905250858160028151811061183657fe5b6020026020010181905250838160038151811061184f57fe5b60200260200101819052506118648282611874565b9250505098975050505050505050565b600081518351146118ed576040517f08c379a00000000000000000000000000000000000000000000000000000000081526004018080602001828103825260168152602001807f70616972696e672d6c656e677468732d6661696c65640000000000000000000081525060200191505060405180910390fd5b600083519050600060068202905060608167ffffffffffffffff8111801561191457600080fd5b506040519080825280602002602001820160405280156119435781602001602082028036833780820191505090505b50905060008090505b83811015611ae95786818151811061196057fe5b60200260200101516000015182600060068402018151811061197e57fe5b60200260200101818152505086818151811061199657fe5b6020026020010151602001518260016006840201815181106119b457fe5b6020026020010181815250508581815181106119cc57fe5b6020026020010151600001516000600281106119e457fe5b60200201518260026006840201815181106119fb57fe5b602002602001018181525050858181518110611a1357fe5b602002602001015160000151600160028110611a2b57fe5b6020020151826003600684020181518110611a4257fe5b602002602001018181525050858181518110611a5a57fe5b602002602001015160200151600060028110611a7257fe5b6020020151826004600684020181518110611a8957fe5b602002602001018181525050858181518110611aa157fe5b602002602001015160200151600160028110611ab957fe5b6020020151826005600684020181518110611ad057fe5b602002602001018181525050808060010191505061194c565b50611af2611cae565b6000602082602086026020860160086107d05a03fa90508060008114611b1757611b19565bfe5b5080611b8d576040517f08c379a00000000000000000000000000000000000000000000000000000000081526004018080602001828103825260158152602001807f70616972696e672d6f70636f64652d6661696c6564000000000000000000000081525060200191505060405180910390fd5b600082600060018110611b9c57fe5b602002015114159550505050505092915050565b6040518060600160405280611bc3611c2a565b8152602001611bd0611c88565b8152602001611bdd611c2a565b81525090565b6040518060a00160405280611bf6611c2a565b8152602001611c03611c88565b8152602001611c10611c88565b8152602001611c1d611c88565b8152602001606081525090565b604051806040016040528060008152602001600081525090565b6040518060600160405280600390602082028036833780820191505090505090565b6040518060800160405280600490602082028036833780820191505090505090565b6040518060400160405280611c9b611cd0565b8152602001611ca8611cd0565b81525090565b6040518060200160405280600190602082028036833780820191505090505090565b604051806040016040528060029060208202803683378082019150509050509056fea2646970667358221220a7117a83a88124d5b92790b1f131e1dd3dfd72277269db608d264e1b3aa7658564736f6c634300060b0033",
  "devdoc": {
    "kind": "dev",
    "methods": {
      "verifyProof(uint256[2],uint256[2][2],uint256[2],uint256[22])": {
        "returns": {
          "r": " bool true if proof is valid"
        }
      }
    },
    "version": 1
  },
  "userdoc": {
    "kind": "user",
    "methods": {},
    "version": 1
  },
  "storageLayout": {
    "storage": [],
    "types": null
  }
}